{
  "_format": "hh-sol-artifact-1",
  "contractName": "PaymentProcessor",
  "sourceName": "contracts/PaymentProcessor.sol",
  "abi": [
    {
      "inputs": [
        {
          "internalType": "address",
          "name": "_tokenAddress",
          "type": "address"
        }
      ],
      "stateMutability": "nonpayable",
      "type": "constructor"
    },
    {
      "anonymous": false,
      "inputs": [
        {
          "indexed": true,
          "internalType": "address",
          "name": "from",
          "type": "address"
        },
        {
          "indexed": true,
          "internalType": "address",
          "name": "to",
          "type": "address"
        },
        {
          "indexed": false,
          "internalType": "uint256",
          "name": "amount",
          "type": "uint256"
        }
      ],
      "name": "PaymentMade",
      "type": "event"
    },
    {
      "inputs": [
        {
          "internalType": "address",
          "name": "to",
          "type": "address"
        },
        {
          "internalType": "uint256",
          "name": "amount",
          "type": "uint256"
        }
      ],
      "name": "makePayment",
      "outputs": [],
      "stateMutability": "nonpayable",
      "type": "function"
    },
    {
      "inputs": [],
      "name": "owner",
      "outputs": [
        {
          "internalType": "address",
          "name": "",
          "type": "address"
        }
      ],
      "stateMutability": "view",
      "type": "function"
    },
    {
      "inputs": [],
      "name": "token",
      "outputs": [
        {
          "internalType": "contract IERC20",
          "name": "",
          "type": "address"
        }
      ],
      "stateMutability": "view",
      "type": "function"
    }
  ],
  "bytecode": "0x608060405234801561001057600080fd5b506040516106803803806106808339818101604052810190610032919061011c565b336000806101000a81548173ffffffffffffffffffffffffffffffffffffffff021916908373ffffffffffffffffffffffffffffffffffffffff16021790555080600160006101000a81548173ffffffffffffffffffffffffffffffffffffffff021916908373ffffffffffffffffffffffffffffffffffffffff16021790555050610149565b600080fd5b600073ffffffffffffffffffffffffffffffffffffffff82169050919050565b60006100e9826100be565b9050919050565b6100f9816100de565b811461010457600080fd5b50565b600081519050610116816100f0565b92915050565b600060208284031215610132576101316100b9565b5b600061014084828501610107565b91505092915050565b610528806101586000396000f3fe608060405234801561001057600080fd5b50600436106100415760003560e01c80638da5cb5b14610046578063f98cf07c14610064578063fc0c546a14610080575b600080fd5b61004e61009e565b60405161005b9190610273565b60405180910390f35b61007e600480360381019061007991906102f5565b6100c2565b005b61008861020c565b6040516100959190610394565b60405180910390f35b60008054906101000a900473ffffffffffffffffffffffffffffffffffffffff1681565b600160009054906101000a900473ffffffffffffffffffffffffffffffffffffffff1673ffffffffffffffffffffffffffffffffffffffff166323b872dd3384846040518463ffffffff1660e01b8152600401610121939291906103be565b6020604051808303816000875af1158015610140573d6000803e3d6000fd5b505050506040513d601f19601f82011682018060405250810190610164919061042d565b6101a3576040517f08c379a000000000000000000000000000000000000000000000000000000000815260040161019a906104b7565b60405180910390fd5b8173ffffffffffffffffffffffffffffffffffffffff163373ffffffffffffffffffffffffffffffffffffffff167f0a58819e8a8484b4b953261f35757d54a8bb44412938c22784e056a69ffa17c98360405161020091906104d7565b60405180910390a35050565b600160009054906101000a900473ffffffffffffffffffffffffffffffffffffffff1681565b600073ffffffffffffffffffffffffffffffffffffffff82169050919050565b600061025d82610232565b9050919050565b61026d81610252565b82525050565b60006020820190506102886000830184610264565b92915050565b600080fd5b61029c81610252565b81146102a757600080fd5b50565b6000813590506102b981610293565b92915050565b6000819050919050565b6102d2816102bf565b81146102dd57600080fd5b50565b6000813590506102ef816102c9565b92915050565b6000806040838503121561030c5761030b61028e565b5b600061031a858286016102aa565b925050602061032b858286016102e0565b9150509250929050565b6000819050919050565b600061035a61035561035084610232565b610335565b610232565b9050919050565b600061036c8261033f565b9050919050565b600061037e82610361565b9050919050565b61038e81610373565b82525050565b60006020820190506103a96000830184610385565b92915050565b6103b8816102bf565b82525050565b60006060820190506103d36000830186610264565b6103e06020830185610264565b6103ed60408301846103af565b949350505050565b60008115159050919050565b61040a816103f5565b811461041557600080fd5b50565b60008151905061042781610401565b92915050565b6000602082840312156104435761044261028e565b5b600061045184828501610418565b91505092915050565b600082825260208201905092915050565b7f546f6b656e207472616e73666572206661696c65640000000000000000000000600082015250565b60006104a160158361045a565b91506104ac8261046b565b602082019050919050565b600060208201905081810360008301526104d081610494565b9050919050565b60006020820190506104ec60008301846103af565b9291505056fea2646970667358221220b2f7930b193bfc7f22f8be545b226bebca39f5a1a5c58a75976253c60bbbfa3564736f6c63430008140033",
  "linkReferences": {},
  "deployedLinkReferences": {}
}